:020000040800F2
:100000005021002075660008AD400008AF40000890
:10001000B1400008B3400008B540000800000000EF
:10002000000000000000000000000000B7400008D1
:10003000B940000800000000BB400008BD400008B7
:100040008F6600088F6600088F6600088F660008BC
:100050008F6600088F660008D94000088F66000888
:100060008F660008E94000088F6600088F66000868
:100070008F6600088F6600088F6600088F6600088C
:100080008F6600088F6600088F6600088F6600087C
:10009000C54A00088F6600088F660008F94000080E
:1000A0008F6600088F6600088F6600088F6600085C
:1000B0008F6600088F6600088F6600088F6600084C
:1000C0008F6600088F6600088F6600088F6600083C
:1000D0008F660008756100088F6600088F6600084B
:1000E000C74000088F660008C94A000800F002F8FF
:1000F00000F065F80AA090E8000C82448344AAF15D
:100100000107DA4501D100F05AF8AFF2090EBAE85A
:100110000F0013F0010F18BFFB1A43F0010318473B
:10012000DCA20000FCA200000A444FF0000C10F812
:10013000013B13F0070408BF10F8014B1D1108BF65
:1001400010F8015B641E05D010F8016B641E01F805
:10015000016BF9D113F0080F1EBF10F8014BAD1C55
:100160000C1B09D16D1E58BF01F801CBFAD505E073
:1001700014F8016B01F8016B6D1EF9D59142D6D3CD
:10018000704700000023002400250026103A28BFF5
:1001900078C1FBD8520728BF30C148BF0B607047F9
:1001A000642908F06B82782908F0A482632908F09A
:1001B0008C84002070471FB51FBD10B510BD08F01E
:1001C000A7FC1146FFF7F7FF03F0DFFC08F0C5FCC2
:1001D00003B4FFF7F2FF03BC05F02EFF412100F846
:1001E000601F88214170B0F86C10C170090A01715C
:1001F00000218170704770B50E4604460025B0F8A6
:10020000C800294602F071FA012E02D1A06D03F058
:1002100067F894F8E0003043C0B203F066F830B1FC
:10022000D4F828010125401CC4F8280106E003F099
:10023000B6FFC4F8AC05012084F8AB05284670BDB4
:100240002DE9F05F4FF00009984693460F460646A9
:100250004C46FA4D4FF0010A17E000BF56F8241043
:10026000A94204D0204600F0F9FD012812D098F8E8
:1002700000100AFA04F0814388F80010204600F0CC
:100280004EFE00BF46F82450641CBC42E6DB4846E4
:10029000BDE8F09FD946F5E72DE9F04F04464378D5
:1002A00000F1BF0A97B0F2300F90884604F58A70CB
:1002B000FF220126002504F160014FF0020B04F239
:1002C000B15904F180070D90092B40D2DFE803F00B
:1002D00005BFE3F23FF1F0EF78002078002860D00E
:1002E000012802D0022832D132E0182002F070FA40
:1002F000B4F8CC0002F087FAE08CA4F8BF005046B6
:1003000002F08BFAE08CC4F83C0102F081FA84F828
:1003100002B0667084F8E26084F8F450C4F80851C2
:1003200040F6411502F03FF808B141F64115A07AB8
:10033000042801D145F080050721284602F0EDFC94
:100340002046FFF74BFF03F02AFFC4F8E8003BE22A
:10035000E08CA4F8BF00504602F05FFAB4F8CC007D
:1003600002F051FAE08C00F0030184F8BE1002F0B4
:100370004FFAE08CB0F5004F01D184F844610020C1
:1003800002F026FA002002F076FD062060700020C0
:1003900003F024F8002003F04BF82046FFF71EFF7F
:1003A00012E2002002F014FA002002F064FD0020A6
:1003B00003F014F8002003F03BF80620607003E21D
:1003C0000A2001F052FC007804286FD1656084F89F
:1003D000E250A0786070A57003F0E1FEC4F8E80078
:1003E000032003F0BFFE964F1021384606F0C1FEF1
:1003F000944E0120C6F8B45604F024F8022005F00B
:100400000AFED6F8B4060028FDD0002004F01AF841
:100410001021384606F0ABFE01F0A9FE01F0A7FE60
:1004200001F0A5FE01F0A3FE01F0A1FE032003F000
:1004300081FE012002F0E4FEA08B01F0D5FF5046C2
:1004400002F0EBF901F0E5FC01F0CDFCD7E3A07878
:1004500002281DD194F8E210D1B114F8F40F401C19
:1004600004F81C09082044F8D4BC04F8D70C02F0A6
:1004700097FB012211460F9B0D98FFF7E1FEE06507
:10048000A07EE076A57603F08AFEA066D83CB6E3AF
:100490006070A570B3E3207801280CD094F8F600C2
:1004A00084F86A000AD14FF0810009E0A6E30EE16A
:1004B00000E1A2E057E094F8F400F1E74FF071009A
:1004C00084F869004FF00D03A4F8C83094F8CA000E
:1004D00084F8620000F1010084F8CA0094F8BF00BB
:1004E00084F8670094F8C00084F8680084F86520F8
:1004F00084F866204FF00002184604F14A0402F026
:10050000E3F8C82002F0B7FC14F84A0D012820D007
:1005100094F8F61001F8095084F8E1B0206D4FF618
:10052000FF7101EA400000BF02F058FF84F8F2506A
:1005300084F8F15084F8E0B05D46B4F8C8000021BA
:1005400002F0D3F8022002F0D0FE05206070E570C2
:1005500054E394F8F41001F8095084F8E160B4F819
:10056000500080B2E0E72078012808D094F8F60027
:1005700084F86A0006D100BF94F8F20004E094F811
:10058000F400F5E794F8F10084F8890002D14FF007
:10059000820001E04FF0730084F869004FF02C03F3
:1005A000A4F8C83094F8CA0084F8620000F1010091
:1005B00084F8CA004FF00002184604F1C20402F0A9
:1005C00083F8A577C23C01212046FFF714FE50B105
:1005D0002078012803D0204601F0C6FA0FE36670A8
:1005E00084F802B00BE3052060700320E0702078EF
:1005F0000128ADD184F8E26000E30B2001F035FB67
:1006000001460078012808D00028A1D0042801D094
:100610006660F3E284F8F060F0E26560E278032A55
:1006200012D094F8F000012815D0D1E90201022A75
:10063000C4E9340117D00B2A36D037E0FFFFCDAB29
:10064000000801401002002020780128C7D0204671
:1006500001F08AFA2EE0204601F096FA84F8F05074
:1006600084F8E050CBE22278012A1AD0D4E90E2394
:10067000801859416FF30800C9B2020A42EA0162C8
:10068000A265A28B101845EB0108C4F8840084F819
:100690008880386DC4F86B0097F8540084F86F00B8
:1006A00004E0D4E90C23E3E70420E0700620607046
:1006B0004FF0000894F8E00090B184F8E050207802
:1006C00000B1666007206070B8F1000F86D05FEA65
:1006D000080073D0022807D0B8F1040F8CD179E25A
:1006E000002002F055FEEAE70F2001F0BEFA0021DB
:1006F00007460391049105910691084684F8E3109A
:10070000797F01F0CC01882930D08C291FD0C829ED
:1007100012D0CC2936D1D7F829000390D7F82D0074
:100720000490D7F821000590D7F82500069097F897
:10073000310007F1310525E0D7F823000390D7F801
:1007400027000490B7F82100ADF8140009E0B7F8CD
:100750002900ADF80C00D7F821000590D7F8250046
:10076000069097F82B0007F12B050BE0B7F8230054
:10077000ADF80C00B7F82100ADF8140097F825008B
:1007800007F1250594F8E21009B92178B9B180463E
:100790009DF80C0048F2010E824600F00300049020
:1007A00006904046B8F1730F73D00EDC70284CD021
:1007B00071281BD0B8F1720F0CD146E01CE2062064
:1007C0006070002002F057FB19E281280ED0B8F1CA
:1007D000820F5ED006206070002002F04CFB387F54
:1007E0008006F1D5102001F040FA08E2D7E90201B5
:1007F000C4E936016978B8F1810F0CD0069820441D
:1008000080F8F710E18C714511D1BDF80C00B0F5FE
:10081000004F06D00BE00AF00700204480F8F510E6
:10082000F0E7B4F8FA10B8690844C4F80401B878DD
:100830000C2802D00E2805D0DAE0052060700920CF
:10084000E070CCE707206070C9E7E8794FF4004218
:10085000401CC0B20690BDF80C0090420BD120782D
:10086000012808D16878A97800EB012000B2C4F80B
:1008700008010020E062B8780C2805D00E2822D0AC
:100880002178012906D009E0052060700A20E07077
:1008900019E071E094F8F200C0070CD1E08C7045CB
:1008A00003D194F8F1305B0705D4904206D194F857
:1008B000F100800702D50320607004E0012935D0E3
:1008C000204601F051F9B8F1700F35D094F8440189
:1008D000002884D094F8F60006998842B1D184F8B3
:1008E000F70010F809009DF8141003280AEB010026
:1008F00000F0030004EB8000D5F80310C0F81C11D1
:100900009FD104F1F1030222012104F58E70FFF75B
:1009100097FCC4F8340194F8F10084F8F300002047
:1009200084F8F100B869C4F8400158E7667084F8AB
:1009300002B084F8E260C6E794F8F4200699FE4815
:100940008A4204990FD104EB8102D5F80310C2F852
:1009500014118142E9D0049994F8F2008E4030439A
:1009600084F8F2003BE704EB8101D1F814218242C4
:10097000DBD0C1F8140132E70021059195F8203051
:10098000119394F8BE300E9303EB8303DB1DDFF865
:10099000A8B3DBB20A4608460993B8F1820F03D028
:1009A000B8F1730F0AD01AE00AF00703234495F850
:1009B00001C093F8F53063451AD110E0069B95F815
:1009C00001C0234493F8F730634511D194F84431C2
:1009D00073B9E38CA3F5004CBCF1030C08D0E38C95
:1009E000734509D1BDF80CC0BCF5004F02D003E03F
:1009F000062028E784F8E460C4F83831DDF838C010
:100A00000123119E03FA0CF333427DD0D7E902365D
:100A10000C9305960023A365AB79D5F8026063F3C8
:100A20000702099B603405EB030C9CF80430DCF8EA
:100A300000E063F30700BEEB060B60EB0202D5F8A3
:100A40001BC0EB7FD2B21192256F743463F30701A0
:100A500094E84C00D43CEB1A62EB0606F6B20B9617
:100A600014930C9E059B761B63EB0203BCEB0E05F7
:100A700061EB0001C8B2DAB21390CDE915260B99EB
:100A8000149808F079FB064605912846139908F05A
:100A900073FB3246059B08F00FFC04910890DDE9DA
:100AA000151008F069FBCDE909105846119908F0B6
:100AB00063FBDDE9093208F0FFFB049B089A08F0AC
:100AC0003BFD04910C900B99149808F055FBCDE96F
:100AD0000801DDE9151008F04FFBDDE9082308F0F7
:100AE000F1F80B9102902846139908F045FB054652
:100AF0000E465846119908F03FFB2A46334608F047
:100B0000E1F80B9B029A00E00CE008F0DBF80246EB
:100B10000B4604990C9808F091F908F0E7FAC11710
:100B2000834605919DF80D10B8F1820F16D00AEB9F
:100B30000120C4F83C01069904EB8101C1F818B109
:100B400094F8B00510F9091000293EDB494249B27A
:100B500000F8091094F8B00591B336E00AEB0121D2
:100B6000C4F83C1101F0070104EB81010122C1F836
:100B700010B111460F9B0D98FFF762FBC4F83401CA
:100B800094F8F20084F8F300002084F8F2006A4A36
:100B900005998BEA020008430ED094F8BE10504627
:100BA00000F0A9F994F8BE100120884004EB8101FF
:100BB00084F8F200C1F814B1B869C4F84001BFE785
:100BC000FFE74FF0FF3100F8091001F022F901F0C2
:100BD0000AF90DE7112001F048F880780C2802D0BE
:100BE0000F2805D00BE0052060700B20E07006E0B8
:100BF000204600F0C9FF02E0606800B966606068E6
:100C000017B0BDE8F08F2DE9F05F834600244B4814
:100C1000032109F0C7F80546494908F00BFE08F022
:100C200075FD07F0AFFF08F061FA00EB400000012E
:100C300008F0C2FE0146284608F094FD414DE97BCC
:100C400081B1414E012912D0404900BF08F0CCFECD
:100C50004FEA060108F086FD0746A87A10F0030F58
:100C600007D028E03A4908F0BFFE3A49F2E73A498E
:100C7000ECE780100E281ED2DFE800F01D1B0F07E6
:100C80001D180D1D1D150A1D1D124FF08B4412E07D
:100C90004FF08A440FE0314C0DE04FF089440AE0F8
:100CA0004FF0884407E04FF0874404E04FF086445B
:100CB00001E04FF0854423492948A846C97B6D7A55
:100CC000405C08F079FE012D21467DD008F04AFDF8
:100CD000244900BF08F088FE05460020394608F088
:100CE00041FD08F013FDDFF8809000224B4608F02C
:100CF000A5F804460E46284608F008FD8A46054633
:100D00002246334607F0DEFF184A194B08F096F8E2
:100D100008F0ECF900F11006584608F016FA00F059
:100D200087F84446C4E90C010BEBDB70642101EB4E
:100D3000600008F00AFA1DE0FFFFCDAB000098410B
:100D40000000A543100200200046A846C33500431A
:100D500085340046004528487B3480440000C04468
:100D6000D49E0008B341823F00408F400D71AC8B90
:100D7000DB68F03F00F05CF8C4E90E01384608F08B
:100D8000C5FC00224B4608F059F82A46534607F0A6
:100D900099FF08F0ABF9E17B4FF49677F1B106F5D6
:100DA000967100BFC4E9141600F5967008F0CDF9ED
:100DB00000F03EF8C4E910012846514600F038F82A
:100DC000000A40EA016000E004E01030C4E91207C4
:100DD000BDE8F09F08F0C6FC03497BE706F52F71DC
:100DE000E0E70249C8847047EA5B7E3F10020020BA
:100DF00010B5A0B0044680220C49684607F087FD74
:100E0000202003F082FA204602F006FC0022694608
:100E10007F2001F059FC00217F2001F066FC0020BA
:100E200002F063FA20B0002010BD000014A20008F8
:100E300010B5F84AF84B08F001F80022F74B07F01C
:100E4000FDFFBDE8104008F011BF10B508F07DF9B6
:100E5000BDE81040EF4AF04B08F02EBA2DE9F04102
:100E600007460846FFF7F1FF4FF09852EC4B08F0A9
:100E700023FAEC4AEC4E02EBC7020446C2E9000139
:100E8000707C0D4660B1307A052806D0E74AE84B01
:100E90002046294607F0D2FF04E0E64AE64BF7E792
:100EA0002046294607F0DCFE0146727A307A00F0CF
:100EB000D5FF22462B4608F033FB002204460D46A0
:100EC000134608F0BDF906D30022DC4B2046294624
:100ED00008F0F0FA02D20020BDE8F081D1480838CD
:100EE00000EBC700C0E90045D6F83001401CC6F849
:100EF00030010120F0E7CB4ACA4B083A02EBC102AD
:100F0000103BD2E9001203EBC000C0E900127047A9
:100F1000C449103901EBC001D1E900017047C14B50
:100F2000002103EBC003C3E90011BE4B083B03EBF8
:100F3000C000C0E900117047BA4AC1490020C2E9A7
:100F400000010146B748BE4A0838C0E900127047A0
:100F5000B54908707047B44800787047B24900221C
:100F6000D1F83401C1F834217047AF48D0F83801C6
:100F70007047AD48D0F83C017047AB48D0F840010D
:100F8000704770B5A84C00250120E565B43402F027
:100F90006CFAA575AB482066E567E06570BD0FB4D7
:100FA000A02270B5A04C00258DF8AB5094F8A9058F
:100FB0002C9E00EB800004EB401004A900F5A47007
:100FC00007F0A5FC94F8A90500EB800004EB4010A5
:100FD00080F8486194F8A905401CC0B284F8A905BE
:100FE000062801D184F8A95570BC5DF814FB0146B0
:100FF00010B50F2001F00301012903D0022901D00F
:1010000003290ED0884991F9E120002A09DDB1F8C1
:101010005000504380B202F0E1F9002002F0B8F92C
:101020000E2010BD10B5804CA16CA06D401A02F0CE
:1010300057F9012002F0ACF9002813D0606D4FF68B
:10104000FF7101EA400002F0C9F9002002F0A0F9A6
:10105000B4F8540080B202F0C1F9D4F82C01401C5D
:10106000C4F82C0110BD2DE9F0416F4C80460026DC
:1010700094F8E1000F46354628B9002002F0AEF999
:10108000002002F0D5F9F8070CD094F8E1102046C2
:10109000012900D1012690F8441179B994F8BE00D5
:1010A00003280BD094F84400226C0306A16D43EA98
:1010B00012200818A065F90708D00EE0002002F001
:1010C0008DF9002002F064F90E2005E794F9E11093
:1010D00094F8BE201144032900D086B3022184F87D
:1010E000E01002F0FDF8032002F0FFF8A0B10020AC
:1010F00001F0C1FE84F8E050D4F82801401CC4F887
:10110000280194F84410226C0B0643EA1221A06DCA
:1011100049184018A06516E0206C94F84420000A95
:10112000A16D40EA026008184FF00C05A06503F0BD
:1011300036F8C4F8AC05012084F8AB0506E0FFE7FB
:10114000B8F1000F04D0FFF76DFF0E252846C3E667
:10115000002002F043F9002002F01AF9F5E70FB47D
:101160003148F0B50146077891F9E1300024591E65
:1011700044250426A5B04AB2022F1CD03FB380F804
:10118000E1200020FFF733FF8DF8AA008DF8A8407A
:101190008DF8A950ADF8AC4090222EA9684624964F
:1011A00007F0B5FB2AAF97E80F00FFF7F8FE25B070
:1011B000F0BC5DF814FB002B06DD80F8E120002177
:1011C0000846FFF750FFDFE7002002F007F925B0DF
:1011D0000020F0BC5DF814EB02F0DAB810B5124C48
:1011E00001460F20E28C01F00301B2F5004F0AD155
:1011F00001290ED1B4F8500080B202F0EFF80020BF
:1012000002F0C6F80E20E18C48F20102914200D1B2
:101210000F2010BDFA48CE3B1835B13D80842E41D9
:1012200019DDB1411000002010020020F6285C8F6B
:10123000C2F5F43F295C8FC2F528F83F0088D340FF
:10124000E0FFEF40FFFFCDAB2DE9F0470F4606462C
:1012500000F007014FF013080025FE4CDDF8209048
:10126000D819A4F8C8800088A4F8650094F8BF00D5
:1012700084F8670094F8C00084F8680004EB8100EB
:101280002144D0F81071E76611F8F57F84F870708A
:101290000D709918497884F8F41094F8CA1084F8FD
:1012A0006210491C84F8CA10EB49D0F810218A4218
:1012B0000CD094F8BE1001228A4084F8F22004EB8E
:1012C0008101D0F81001C1F8140107E094F8BE00C4
:1012D00004EB8000C0F8141184F8F250E06C01F0C7
:1012E000CAFD94F84401C8B1B4F8F810B4F8FA3063
:1012F000B9FBF1F201FB1290F2B25A43101A4A08FC
:101300005242824200DD0844C4F80801B4F80811D2
:1013100084F86A10090A84F86B1005E0C4F80851D3
:1013200084F86A5084F86B50702084F869000021BA
:10133000404601F0DAF904F160014046BDE8F047AB
:10134000002201F0C1B970B5C24C13261944A4F8AB
:10135000C8600988A4F8651094F8BF1084F8671075
:1013600094F8C01000F0030084F8681004EB8001CA
:101370002044D1F81811E16610F8F71F002584F811
:10138000701005709818407884F8F60094F8CA0038
:1013900084F86200401C84F8CA0054F84C0F01F035
:1013A0006AFDC4F8BC50A577E5777220607700210C
:1013B00030464C3C01F099F904F160013046BDE83B
:1013C0007040002201F080B92DE9F04F4FF0000885
:1013D000D1B00546CDF83881C346C246CDF83C8130
:1013E00002F0DDFE2C9028792AA90F26994C259130
:1013F00002280DD0042876D09022684607F087FA9C
:1014000026AC94E80F00FFF7AAFE51B0BDE8F08FBC
:10141000E888ADF89C00287A412801D0612804D1E1
:10142000687A00F0CC00882834D063274EA801F0F9
:10143000BAF9E9882DA80022019001F062F99DF81F
:1014400038019DF8391100EB01209DF83A110A048A
:101450009DF83B1102EB016108442A909DF83C0184
:101460002A9ACDE9280818EB020240EB0801CDE9E1
:10147000282100062A99022F00EB11202B908DF8CD
:1014800098808DF8997031468DF89A6008D0902236
:101490002599B2E74FF0090B4FF0070A0227C5E77D
:1014A0000DF1980C0CEB0A000126027F407F02EB45
:1014B000002085B2207800287ED0012804D194F83D
:1014C000E1305B1E84F8E1300CEB0B02137F732BD1
:1014D0000ED009DC48F2020C702B03D0712B08D01F
:1014E000722B6AD194E069E1812B42D0822BF8D132
:1014F0003AE194F84431A146002BF2D1B9F82630F4
:1015000063455AD801286CD005F003010091507F43
:1015100061F31F108030C0B289F8B005484480F8EC
:10152000B185032002F01EFE5A4651462846019B13
:10153000FFF709FF48F20100854204D0B9F85400D2
:1015400080B201F04BFF2B98C9F85800B9F826007B
:10155000411B01F0030189F8E1100321FFF783FD2E
:1015600000998DF89A0009EB81013B48C1F81801F8
:1015700033E0A146012834D005F007010291507FE5
:1015800061F31F1089F8B005484480F8B185032045
:1015900002F0E8FD2C9800905A4651462846019BDF
:1015A000FFF752FEB9F8540080B201F017FF2B98F4
:1015B000C9F85800032001E0DAE0D7E089F8E1003B
:1015C000B9F826000221FFF74EFD02998DF89A0026
:1015D00009EB81012048C1F81001032002F0AAFDA7
:1015E000C6E099F8E1009022401C89F8E1006846C5
:1015F000259907F08CF926AC94E80F00FFF7AFFDB2
:1016000089F8E360D9F82401401CC9F82401FCE6FC
:10161000A046012831D0032848D04FF00E09702B86
:1016200065D098F8440130B198F8F600404490F83D
:10163000B11502297FD0B8F8260060456ED198F820
:10164000B00500EB080191F9B105002866DB401CEC
:1016500004E0000010020020FFFFCDAB81F8B105CF
:1016600098F8E100401E84F8E100002001F0B6FE89
:10167000002001F000FC012167E098F8F4004044EC
:1016800090F8B115491C80F8B1152846FFF7AFFC5A
:101690008DF89A0005F0030202EB820098F8F21030
:1016A00006FA02F2114388F8F21017E098F8F600F3
:1016B000404490F8B115491C80F8B1152846FFF751
:1016C0008DFD8DF89A0005F0030202EB820098F878
:1016D000F11006FA02F2114388F8F110C01D4044DF
:1016E0004E9940F8691F9DF83C11017140E098F84F
:1016F000B00500EB080191F9B10500280FDB98F95E
:10170000E120002A0BDD401C81F8B10598F8E100CA
:10171000401E84F8E100042117E00CE01BE00320E8
:1017200002F020FD002001F059FE002001F030FE03
:101730008DF89A9051E7032180F8B11598F8F100DF
:10174000052140F0080084F8F1002846FFF78BFCE3
:101750008DF89A000CE0002001F040FE002001F01E
:1017600017FE8DF89A9003E0012813D08DF89A1097
:1017700084F8E360902224976846E434259907F0C2
:10178000C6F826AD95E80F00FFF709FC206C401C59
:1017900020643AE614F8E10F9022401C207068465D
:1017A000259907F0B4F826AD95E80F00FFF7D7FCB0
:1017B000A67054F8430F401C206026E68DF89A600E
:1017C000207802280CD194F9E100002808DD401EA1
:1017D00084F8E100E08C0621FFF745FC8DF89A00C3
:1017E0008DF89880042000228DF89900ADF89C8037
:1017F0002892CDE9292824909022CDF8AC80684623
:10180000259907F084F826AC94E80F00FFF7C7FB92
:10181000FBE5F0B5D1B000244E944F94077902F067
:10182000BEFCFC4D2AAE2C90012F02D0062F44D0D6
:1018300055E04EA800F0ACFF9DF838019DF8391135
:101840009DF83B2100EB01209DF83A110127090486
:1018500001EB026108442A909DF83C012A9ACDE9E7
:101860002804A21840EB0401CDE928212A9900069A
:1018700000EB11202B9085F8E340B5F8C8208DF8D7
:1018800098408DF89A40ADF89C208DF8997005F13C
:1018900060012DA807F03BF8902231466846249756
:1018A00007F035F826AF97E80F00FFF778FBD5F87B
:1018B0002001401CC5F8200111E006208DF8984059
:1018C0008DF899002490ADF89C40902231466846EE
:1018D00007F01DF826AF97E80F00FFF760FB85F8CB
:1018E000AB4551B0F0BD70B50025CA49D72205FB04
:1018F00002F001EBC00400BF05EB850004EB4010D3
:10190000A02100F5A47007F034F86D1C062DF3DB60
:10191000002084F8A90584F8A80584F8AA0570BDFC
:101920002DE9F041BB4C0220002620706670354640
:1019300084F8E26040F60F0000F01CFC074603202C
:1019400001F05EFC38004FF0FF3702D03846BDE8AA
:10195000F081FFF716FB4DF6CA6024F8CC0F257511
:10196000E5752576FFF7BFFF44F80D5C44F8095C88
:101970000020E56301F061FA002001F04BFA01213B
:10198000A54801F05AFDAFF2BF51AFF2791001F056
:1019900083FA84F8DF54E5652566D7216775002052
:1019A0004E43CC3C6FF0090204EBC6010B18401CFF
:1019B00083F8B125FF28F9DD00208D65C7E700F029
:1019C000D6BB9449886270472DE9F0470E46914D89
:1019D0000178044629726178697361782973A17866
:1019E0006972E178E9732279AA726279EA72002059
:1019F000A279AA73287422896A82022900D101205F
:101A0000687405F10800012100F02BFD2078834F58
:101A100000EB400017F820002875297AA07800F024
:101A2000DAFC010001D0481C07D12078A17800EB36
:101A3000400007EB800050F8211005F11400A96167
:101A400000F0BBFC00F076FC4FF6FF7902281CD0BA
:101A500003281AD0A07800F030FE4008A88301D0F7
:101A6000484506D1A0786E4901EB400030F8021CD1
:101A7000A983A88B00F0BEFCA88B00F0B5FCA88B56
:101A8000E883207904281DD025E02878022810D08A
:101A900000200027A846EA7B297A00F02FFCA8F84E
:101AA0001C0008B14845E4D198F80800052802D088
:101AB00002E00120EDE701275A4830F81700A8F8A6
:101AC0001C00D6E7202002F020FC002001F060F985
:101AD000082002F01AFCF088FFF773FFB08825F8A1
:101AE000F80F31886980308845F8CC0C7088A88060
:101AF000801E4843A8603089BDE8F047FFF783B8EF
:101B0000444890F8F40070474249084490F8F500C2
:101B100070474049084490F8F70070473D48D0F8B6
:101B2000300170474049D1E9000170473E49083112
:101B3000D1E9000170473C4910B5D1E9000100220C
:101B40003A4B07F0B9FBBDE8104007F0CFBA364971
:101B500010B508310022D1E90001344B07F0ACFB8D
:101B6000BDE8104007F0C2BA10B50621417002214D
:101B70000170002001F032FC002001F059FCBDE8AA
:101B80001040002001F077B970B50446C06D401CCC
:101B9000E065002060602178022909D0012503203A
:101BA0000129E1780BD002291FD003292DD019E09B
:101BB00006206070BDE87040002001F00FBC0226D6
:101BC000022902D003290AD00CE094F8F210C907C8
:101BD00008D100BF84F8E2506570A67070BD01F0B6
:101BE00099F9F7E76570A07070BDE18C48F20102C9
:101BF000914203D194F8F120520706D5B1F5004F78
:101C0000F0D194F8F1108907ECD42046BDE870407B
:101C1000AAE700001002002080D02324209E0008A4
:101C2000809E0008849E00080800002000408F402D
:101C3000864890F8AA1501EB810100EB411090F85D
:101C4000480170470FB4A02270B5804C04A904F578
:101C5000A1602C9D06F05BFE84F8085570BC5DF811
:101C600014FB7B49A02206F052BE2DE9F047774DC8
:101C70008146002095F8A81505F5D76601EB81018E
:101C800005EB411494F848715FB3804694F849011C
:101C9000707094F84A01B070B4F84C01B080D4E987
:101CA0005401C6E90201D4F858013061D4F85C014E
:101CB0007061D4F86001B06104F5B2717F2205F261
:101CC000D46006F024FE377084F8E39184F84881EC
:101CD00095F8A805401CC0B285F8A805062803D0D1
:101CE00005E03070707004E0404685F8A88585F8FE
:101CF000AA055848BDE8F087F0B5CFB00027FFF738
:101D000097FF0146514ED720474306EBC7042046B4
:101D1000FEF7C2FA00210028F9D00025022813D1CD
:101D200016F8370001280CD1D4E90A100144D4F880
:101D300008010144C4F8EC10C4E94250012084F8C1
:101D4000E40084F8E350656094F8E400012824D1AD
:101D500094F8E30008BB16F8370001281DD102F003
:101D60001EFAD4F8E810401AD4F8EC10884214D9BE
:101D700084F8E4508DF8985084208DF89900042060
:101D80002490ADF89C5090222AA9684606F0BFFD29
:101D900026AE96E80F00FFF702F94FB00020F0BD25
:101DA00010B52D4C1021204605F0E3F9012004F078
:101DB00032F91021204605F0DAF9052004F02BF95C
:101DC000002000F0BAFF0021BDE81040481E01F0DD
:101DD00034BB1E49C1F8B40670471C490862012093
:101DE00081F82400704710B5184C94F8240001289D
:101DF00007D100211E20226A00F0C8F8002084F8D4
:101E0000240010BD114A9083D183012082F825005F
:101E1000704710B50D4C94F82500012808D1E08BCF
:101E200000F0E8FAA08B00F0DFFA002084F825002B
:101E300010BD0648808B70470448C08B704703492B
:101E4000002211F8F30F0A70704700001002002002
:101E500018070020C80800200008014070B505469A
:101E600016460024084607F051FC022207F06CFFDA
:101E700007F03CF9FF2800DDFF202A49012EA1F1DF
:101E800008020CD0042D2DD0072D2BD0515D01EB75
:101E9000810202EBC101244A02EB410133E0042D2F
:101EA0000AD0072D08D0515D01EB810202EB4111F0
:101EB0001C4A083211440FE0495D1B4A01EB011135
:101EC000883A02EB810100E0641C0A5D8242FBDB80
:101ED000A4F11C001CE0641C0A5D8242FBDBA4F13F
:101EE000170015E0495D01EB8102C2EB81110E4A3A
:101EF0006832114400E0641C0A5D8242FBDBA4F1FD
:101F00001E0005E0641C0A5D8242FBDBA4F11100A7
:101F100007F052FD07F0FAFBBDE87040034A044B9E
:101F200007F0CAB9429F000866A000087B14AE47BC
:101F3000E17A843F08B551B140F0C0008DF800004F
:101F4000C8B27F2909D88DF8010002200DE040F0C9
:101F500080008DF80000012007E040F080008DF83F
:101F60000100C8098DF802000320694601F018FC41
:101F700008BD08B589B28DF80020120A8DF801203D
:101F800080B26B460222FFF7D5FF08BD38B50023AB
:101F90006C46E254120A5B1C042BFADB89B280B255
:101FA00023460422FFF7C6FF38BD08B551B140F003
:101FB00040008DF80000C8B27F2907D88DF80100D5
:101FC00002200BE08DF80000012007E040F08000C7
:101FD0008DF80100C8098DF802000320694601F060
:101FE0000CFC08BD38B54FF0FF3489B280B26B46A7
:101FF0000422FFF7DAFF30B903216846425C491E2C
:1020000002EB0424FAD5204638BD38B504466B46A9
:10201000022200213620FFF7C8FF0E2C2CD2DFE869
:1020200004F00F07152B2B2B2B1D392B2B44494E5E
:1020300000208DF800009DF8010000F0FE0019E07E
:102040009DF8000000F0FC00401C04E09DF800003A
:1020500000F0FC00801C8DF800000DE09DF80000F1
:1020600000F0B30040F048008DF800009DF801003A
:1020700040F080008DF801006B46012200213620DF
:10208000FFF758FF0122114636200DF10103FFF73B
:1020900051FF38BD9DF8000000F0B3008DF800003E
:1020A0009DF8010000F07F00E4E79DF8010040F09A
:1020B0000200DFE79DF8010000F0FD00DAE79DF87F
:1020C000000000F0CF0040F02000C4E738B54FF624
:1020D000FF7489B280B26B460222FFF766FF30B907
:1020E0009DF800009DF8011000EB012084B220460D
:1020F00038BD08B503208DF8010001208DF80000DF
:102100006B46022200213620FFF714FF4FF40042F5
:1021100006212D20FFF72DFF012003F07CFF012079
:10212000FFF773FF002008BD08B5010A8DF8011004
:102130008DF800006B46022204212D20FFF7FAFEE5
:1021400003208DF800006B46012206212D20FFF7A9
:10215000F1FE00208DF800006B46012206212D20A3
:10216000FFF7E8FE0A212D20FFF73CFF08BD002104
:10217000084637E72DE9FC410027064604208DF884
:1021800000003D46FE4C84F87C7084F82D70C4F845
:10219000807084F86970C4F8847084F87D70C4F825
:1021A0008870C4F88C706034FFF7E1FFF54944F89B
:1021B000600D884202D08817BDE8FC810020FFF73F
:1021C00024FF6B46012200212420FFF7B3FE1E20CE
:1021D000FFF7AAFF1FFA80F84FEA1820A073300714
:1021E00004D50420FFF7A0FFC4F8840094F884000D
:1021F00010F0FF0F09D002208DF8040001AB01227E
:1022000012212D20FFF796FE01E0C4F8845006202D
:10221000FFF78AFF60600720FFF786FFA561A060D7
:1022200004EB87007F1CC561042FF9DBB0071AD5CA
:10223000A07B2746012804D81C20FFF775FFB86152
:1022400011E003280FD80D20FFF76EFFF8610E2074
:10225000FFF76AFF38620F20FFF766FF78621D20E4
:10226000FFF762FFB862C848F207007800F01F016C
:1022700004D018F01F0284F82C2001D184F82C100F
:1022800070070CD55FF0000505F11000FFF74CFF5B
:1022900004EB85016D1C48630C2DF5DB06E0002086
:1022A00004EB8001401C4D630C28F9DB300502D59E
:1022B000FFF71FFF09E005213620FFF707FF20F495
:1022C000007205213620FFF754FE0120FFF79DFE26
:1022D00000210420FFF786FE206300212620FFF75F
:1022E00081FE40F4A82200212620FFF74FFE0022A5
:1022F00026213620FFF73DFE00205DE710B50023C4
:102300009F4C022902D005290FD107E0022A01D0F3
:1023100012B10AE0E36908E0236A06E0022A01D06C
:1023200012B102E0636A00E0A36AC007C00EC340B6
:1023300098B210BD9248807B704708B56B46042266
:1023400000212620FFF731FE9DF802006B4640F089
:1023500005008DF80200042200212620FFF7EAFD87
:1023600008BD08B501438DF80010080A8DF801007A
:10237000080C8DF802006B46032208212620FFF787
:10238000D9FD08BD08B501438DF80010080A8DF885
:102390000100080C8DF802006B4603220C21262058
:1023A000FFF7C8FD08BD7648D0F884007047744830
:1023B0004068704772488068704710B5044603460D
:1023C00001220B212A20FFF7B5FD62680021BDE83C
:1023D00010401E20DAE56D4A515C00EB410068496F
:1023E00001EB8000006B704765490246C8820021FE
:1023F0001820BEE562490246888241F604012E207B
:10240000B7E538B504466B4601220E212B20FFF7B5
:10241000CCFD9DF8000004F01F0120F01F000143D7
:102420008DF800106B4601220E212B20FFF782FD54
:1024300038BD38B504466D208DF800006B4601228A
:1024400040F606012E20FFF775FD41F6060114B196
:1024500040F2076201E041F207622E20FFF789FD9A
:1024600038BD2DE9F84F8A46044605784179484839
:102470004FF00009C84630F8117061784048491E95
:10248000CEB2C0F88010042D77D0072D75D0002172
:102490008B46217801733A49E279096B002A6DD0A5
:1024A00021F4800101633648217A4FF440334173AF
:1024B000217A026B03EA01410A43026300210420EE
:1024C000FFF764FD3A4642F604012E20FFF751FD66
:1024D0003046FFF7AEFF2D4F2E490522785D00EB09
:1024E0008000431807212B20FFF724FD264B0122F3
:1024F0000E212B20FFF71EFD2749012201EB0B03C4
:102500000B212820FFF716FD785D244951F8202083
:102510000C212820FFF73AFDE079214901EB8000EA
:10252000A17930F8112002212720FFF722FD1D4854
:10253000042130F816202720FFF71BFDE079F0B1C9
:10254000A07804284AD028208DF8000020220621F7
:102550002720FFF70EFD6B46012226212720FFF7DB
:10256000E9FC1148E17800EB061050F82120082121
:102570002720FFF70BFD628918E022E023E027E027
:10258000680900203001CADEC69E0008889E000847
:10259000089F0008A89E0008C79E0008909E00089B
:1025A000D89E0008E49E0008E89E000841F241071A
:1025B000BA4203D020212720FFF7DBFC608990B1CD
:1025C00016E0012164E741F48001FF0801636AE736
:1025D000642206212720FFF7CCFCC2E710208DF8EB
:1025E00000000246B3E73A4620212720FFF7C1FC4E
:1025F000FE4F0C2123203A68FFF7C8FC07EB46008A
:10260000042182882320FFF7B4FCA07958B1E07937
:10261000F7490122431800212120FFF78BFC4FF0DE
:1026200003094FF0010805F00F00290740EA116087
:1026300061784FF4402202EA81410843920002EAA5
:10264000095108434FF4003202EA48410843217916
:102650004FF0F86202EA81510843617940EAC162B1
:1026600000211F20FFF792FCA07861780843E179F0
:10267000000440EA4130DF4C40F4004200210820D1
:102680002261FFF783FC5FEACA7003D094F82C0044
:10269000FFF7B7FE5FEA8A700CD5A0693501E84004
:1026A000C0F34E00FFF7A6FEA069E840C0F34E005D
:1026B000FFF79AFE0020BDE8F88FCE4900011038E0
:1026C0008969C14088B2704710B514460244B2F51A
:1026D000806F02D94FF0FF3010BD0B46821E21469D
:1026E0000920FFF727FC002010BDC24A10B512696F
:1026F00040EA8150024300210820FFF747FC0020F8
:1027000010BD30B414460A462146034630BC1120A1
:102710004BE470B5054616460C460720FFF775FCDE
:102720002B46224631462520FFF73FFCBDE870408E
:1027300008206AE438B504466B46022205211520BC
:10274000FFF733FC9DF800009DF8011000EB01201D
:1027500080B206F062FD6FF0050207F0F5FAC4E9F9
:10276000040100212E20FFF7B1FC2080231D082248
:1027700000211220FFF719FC07211520FFF7A6FC06
:10278000608000211020FFF72DFC000DA08138BDD6
:10279000034605220021172007E40121172021E428
:1027A000002117201EE40346052200211520FFF713
:1027B000FCBB0121152015E40021152012E40121A4
:1027C00006200FE40346052200210620FFF7EDBB9B
:1027D00010B5044600210420FFF704FC8649084098
:1027E0003CB120F4FF7004F4FF71014341F0010299
:1027F00001E020F001027F4800210263BDE81040A3
:102800000420FFF7C3BB024602210320FFF7B1BB40
:10281000024600210320FFF7ACBB0346082200213B
:102820000120FFF787BB0346082200210120FFF7A4
:10283000BCBB2DE9FC5F0746002603208DF8000095
:10284000344635466B46012207212D20FFF772FBE7
:1028500007F00F0749F2202041F62401062F11D27C
:10286000DFE807F01003080B0FED41F224050646E0
:102870000E2407E00D46064603E00D4606464E24AC
:1028800000E003248DF80060300A8DF801006B46EB
:10289000022200212D20FFF74DFB4FF008088DF894
:1028A00000806B46012206212D20FFF743FB02200A
:1028B0008DF800006B46012207212D20FFF73AFB1F
:1028C0004FF088098DF800906B46012206212D20DB
:1028D000FFF730FB4FF0800A8DF800A06B46012215
:1028E00006212D20FFF726FB00268DF800606B46A1
:1028F000012206212D20FFF71DFB05208DF8000089
:102900006B46012207212D20FFF714FB8DF80040B4
:10291000200A8DF801006B46022200212D20FFF7CE
:1029200009FB8DF800806B46012206212D20FFF760
:1029300001FB4FF0040B8DF800B06B46012207211C
:102940002D20FFF7F7FA8DF800906B460122062143
:102950002D20FFF7EFFA8DF800A06B46012206212B
:102960002D20FFF7E7FA8DF800606B460122062163
:102970002D20FFF7DFFA01248DF800406B46224638
:1029800007212D20FFF7D6FA8DF80050280A8DF880
:1029900001006B46022200212D20FFF7CBFA8DF8B3
:1029A00000806B46012206212D20FFF7C3FA0A2082
:1029B00003F031FB8DF800606B46012207212D20CA
:1029C000FFF7B8FA8DF800406B46012206212D2052
:1029D000FFF7B0FA02208DF800006B4601220721B4
:1029E0002D20FFF7A7FA8DF800B007E0CC9E000875
:1029F000D49E000868090020FFFF47F06B460122C3
:102A000007212D20FFF796FA642003F004FB8DF8D0
:102A100000606B46012207212D20FFF78BFA8DF80D
:102A200000606B46012206212D20FFF783FA0A2061
:102A300003F0F1FA012F04D0022F02D007E0242581
:102A40001FE701AB012208212D20FFF7AEFA00207D
:102A5000BDE8FC9F7CB50D46044601AB0122082170
:102A60002D20FFF7A2FA9DF80400800705D4F8484E
:102A700005F092FD4FF0FF307CBD200E8DF8030075
:102A8000200C8DF80200200A8DF801008DF800401E
:102A90006B46042200212D20FFF74CFAC5F30220DB
:102AA0008DF801008DF800506B46022204212D2084
:102AB000FFF740FA40208DF800006B460122062106
:102AC0002D20FFF737FA00208DF800006B46012219
:102AD00006212D20FFF72EFA012003F09CFA01AB0E
:102AE000012208212D20FFF760FA9DF80400C0079D
:102AF000F2D000207CBD2DE9F041002605460F46AE
:102B000034463046FFF781FA0120FFF792FE39463E
:102B10002846FFF79FFF3846FFF706FBA84200D183
:102B20000126641C052C01D0002EF0D00420FFF7F4
:102B300080FE3846FFF7F8FAA84201D1002401E0F0
:102B40004FF0FF340020FFF774FE2046BDE8F0810F
:102B500008B504208DF800006B46012202212C20CC
:102B6000FFF7E8F900208DF800006B4601220221F2
:102B70002C20FFF7DFF908BD08B500208DF8000014
:102B80006B46012202212C20FFF7D4F902208DF898
:102B9000000001466B4601222C20FFF7CBF908BD4F
:102BA000EAE7F8B5012604468DF800606B46324628
:102BB00000213620FFF7BEF900258DF800506B4646
:102BC000012206212C20FFF7B5F98DF800506B4645
:102BD00001220A212C20FFF7ADF9FFF7B9FF8DF88C
:102BE0000040200A8DF801006B46022208212C20AB
:102BF000FFF7A0F9FFF7ACFF8DF800606B460122EC
:102C00000A212C20FFF796F9FFF7A2FF8DF800505C
:102C10006B46012200213620FFF78CF9F8BDF8B58C
:102C200004208DF800006B4601220A212C20FFF7BA
:102C300081F9FFF78DFF00248DF800406B460122DB
:102C40000A212C20FFF776F9FFF782FF01208DF88B
:102C5000000002466B4600213620FFF76BF9012089
:102C600003F0D9F976208DF800006B46012204218B
:102C70002C20FFF75FF980258DF800506B4601226C
:102C800002212C20FFF756F988278DF800706B463B
:102C9000012202212C20FFF74DF96B46012203216E
:102CA0002C20FFF782F99DF800004FF6FF7101EA32
:102CB000002675208DF800006B46012204212C208F
:102CC000FFF738F98DF800506B46012202212C20C5
:102CD000FFF730F98DF800706B46012202212C209D
:102CE000FFF728F96B46012203212C20FFF75DF93D
:102CF0009DF800508DF8004035436B4601220221BB
:102D00002C20FFF717F98DF800406B4601220021B7
:102D10003620FFF70FF92846F8BD38B50C460246B5
:102D200000212C20FFF725F98DF800406B46012289
:102D300006212C20FFF7FEF838BD10B5044604210B
:102D40003620FFF74FF914B140F4006201E020F49F
:102D500000620421BDE810403620FFF717B970B5B6
:102D60000D460646FFF703FA3A4CA0420ED000216A
:102D700033462A460846FFF718F9052003F04BF9B9
:102D8000FFF7F5F9A04201D0A01770BD002070BD7B
:102D900038B500F00301012000EB411403218DF848
:102DA00001108DF800006B46022200213620FFF74B
:102DB000C1F8224612212D20FFF7DBF80120FFF792
:102DC00024F938BD10B5044600210420FFF70AF9A4
:102DD0002149086314B120F4802001E040F48020F0
:102DE000086302460021BDE810400420FFF7CEB87A
:102DF00010B5194C02021A20216B41F08041216369
:102E00000221FFF7B6F8226B0021BDE81040042034
:102E1000FFF7BCB810490A6B20B122F48050086358
:102E2000012003E042F480500863002081F82D0067
:102E30000A6B00210420FFF7A9B808B500218DF81E
:102E4000001005490A6B48B142F0005008E000004C
:102E500094A200083001CADE6809002022F0005068
:102E60000863000E8DF800006B4601220321042048
:102E7000FFF760F808BD10B5044600211A20FFF7DF
:102E8000B1F8C4F313026FF3130002430021BDE84D
:102E900010401A20FFF77AB8FE4AC2E922017047B3
:102EA00008B56B46012200210F20FFF77EF89DF840
:102EB000000000F0010008BD08B5E0208DF800001A
:102EC0006B46012203213620FFF734F8F0208DF8FD
:102ED00000006B46012203213620FFF72BF808BDC6
:102EE0001CB56B46012203210F20FFF75EF89DF809
:102EF000000000F0800100F04000B1EB400F08D06E
:102F000001208DF80400024601AB03210D20FFF7DC
:102F100011F81CBD38B540208DF8000000210E20AE
:102F2000FFF760F8044600F015FC05460022114644
:102F30000E20FFF72BF86B46012200210D20FEF733
:102F4000F9FFD54A00210F20FFF720F8FFF7C8FF4F
:102F5000224600210E20FFF719F8284600F007FC52
:102F6000CC49002081F87D0038BD10B502210F202A
:102F7000FFF7ACF800F0100010BD2DE9FC5F4FF03A
:102F80000008C44D4646414685F8688095F82D00F6
:102F900085F86E000F20FFF725F8C04A686605F136
:102FA00090031168044643F82100491C11600A2966
:102FB00000DB1660A4F50000C01E03D1FFF7AAFFD6
:102FC000FFF77AFFDFF8CCA261054FF003070AF1A3
:102FD000640A4FF4807B1CD595F82D00C8B9C4F362
:102FE0004220072815D0FFF795FFFFF765FF286BF4
:102FF00004F0F804800005D55A4600210D20FEF7A4
:10300000B8FF06E085F86870D5F88C1009B1504615
:10301000884760044FF0010972D5600571D5E00260
:1030200012D5FFF777FFFFF747FF286B800007D522
:1030300002B05A46BDE8F05F00210D20FEF799BFAF
:1030400005F8687F696A6DE000211020FFF73EF8FF
:10305000904BC0F309076C33022200211120FEF7C8
:10306000A4FF687B08B907F07F07A5F86A702007FE
:1030700005D595F86C00810644D5022842D004F0AD
:10308000080085F86900022085F8680095F82D0091
:10309000A8B38DF804906B46012203210F20FEF7A0
:1030A00084FF9DF8000000F0800100F04000B1EBCB
:1030B000400F07D104F4C04242EA080200210F2069
:1030C000FEF764FF286B800004D45A4600210D20CF
:1030D000FEF74FFFD5F88C1009B150468847FFF72F
:1030E00044FF30B3FFF716FFFFF7E6FE286B8000C2
:1030F00004D55A4600210D20FEF73BFFA8E408E066
:1031000028E01DE085F869604FF0080885F87D60CB
:10311000B9E704F4DE4242EA080200210F20FEF77C
:1031200035FF6AE00029E9D002B05046BDE8F05F03
:10313000084701AB012203210D20FEF7FBFE87E4C7
:10314000286B800001D4FFF7E5FEFFF7B5FE85F898
:103150007D6075E7200616D5F82200210F20FEF7C6
:1031600015FF95F8690048B185F8696095F82D005C
:1031700020B995F87D0008B1FFF7CCFE85F868907E
:10318000D5F88810CEE7A00310D504F40032002152
:103190000F20FEF7FBFE042085F86800D5F88C10A0
:1031A00009B15046884785F87D6051E43C4814EAEF
:1031B0000002A3D000210F20FEF7E8FE85F87D6015
:1031C000286B800001D4FFF7A5FEFFF775FEE00431
:1031D00001D508200CE020040DD4E00301D509201E
:1031E00006E0600101D50A2002E0A00203D50B2011
:1031F00085F8680001E085F86870D5F88C1091E7D3
:1032000038B50446C0076B464FF002024FF000018C
:103210004FF026002DD0FEF7C8FE9DF801000122D8
:1032200020F03C0040F014008DF8010011462620EB
:103230000DF10103FEF77EFE6B46012202213620CE
:10324000FEF7B3FE9DF800006B4640F084008DF859
:103250000000012202213620FEF76CFE10208DF8BE
:10326000000001208DF80100022228216B46362043
:103270000BE0FEF79AFE9DF801006B4620F014006B
:103280008DF80100022200212620FEF753FEA00740
:103290001AD507E068090020F8FF2724180000204D
:1032A000009027240F208DF800006B4601222A2170
:1032B0003620FEF73FFE00208DF800006B4601220D
:1032C0002A213620FEF736FE38BD10B50020FEF765
:1032D0009CFE00220421BDE810403620FEF749BEC6
:1032E000024601210A20FEF751BEF8B5002405462A
:1032F00026468DF800408007FE4F0BD580208DF8C4
:1033000000006B46012200210D20FEF713FE012074
:1033100087F87D00E8079DF8000021D040F0060006
:103320008DF800006B46012200210D20FEF702FE01
:1033300003210F20FEF7CAFE10F4816F1AD040203F
:103340008DF800006B46012200210D20FEF7F2FDF2
:103350000020FFF7F2FC87F87D604FF0FF3409E0B2
:1033600040F002008DF800006B46012200210D2084
:10337000FEF7E0FD2046F8BD41EA022121F0F0020F
:10338000C00703D000211D20FEF7F3BD0022F9E79E
:1033900070B50446FFF7A4FD4FF480752A46E00798
:1033A00001D04FF4407200210D20FEF7E2FDE0074E
:1033B00012D003210F20FEF789FE10F4816F0BD08D
:1033C000FFF7A8FDA00704D52A4600210D20FEF72F
:1033D000D0FD4FF0FF3070BD002070BD38B5054600
:1033E0006B46012203210420FEF7DFFDC14C75B1BD
:1033F0002A4600210C20FEF7BCFD9DF8000040F09D
:1034000010008DF80000206B40F0805008E09DF81F
:10341000000020F010008DF80000206B20F080509C
:1034200020636B46012203210420FEF783FD38BD93
:10343000024624212720FEF79CBD70B50E460446A7
:1034400000F088F9054600210E20FEF7CBFD0EB1F5
:10345000204300E0A043024600210E20FEF796FD27
:103460002846BDE8704000F082B938B50446022015
:103470008DF800006B46012200212F20FEF75AFD37
:10348000002C08D001208DF8000002466B46002178
:103490002F20FEF74FFD38BD10B5044604212F2024
:1034A000FEF7A0FDC0F30B012180C0F30B4060804C
:1034B00008212F20FEF796FDC0F30B01A180C0F379
:1034C0000B40E0800C212F20FEF78CFDC0F30B0198
:1034D0002181C0F30B40608110212F20FEF782FD77
:1034E000C0F30B41E181C0F30B00A08114212F2018
:1034F000FEF778FDC0F30B416182C0F30B00208220
:1035000018212F20FEF76EFDC0F30B01A182C0F33E
:103510000B40E08210BD38B500240094FFF7D5FEC3
:10352000002211462C20FEF724FD6B4601220621C5
:103530002C20FEF7FFFCFFF71FFB6B460122032147
:103540003620FEF732FD9DF800006B4600F00F00BC
:103550008DF80000012203213620FEF7EBFC01204C
:1035600002F059FD9DF800006B4640F0F0008DF828
:103570000000012203213620FEF7DCFC5D4880F8C4
:103580007D4038BD38B50446FFF79FFE5A4D5B4974
:103590000522285D00EB8000431807212B20FEF751
:1035A000C9FC574B01220E212B20FEF7C3FC285DDE
:1035B000544951F820200C212820FEF7E7FC4FF455
:1035C000FF1200212820FEF7E1FC4F4A00212820AD
:1035D000FEF7DCFC22208DF800006B460122002162
:1035E0003620FEF7A7FC07208DF8000001226B466D
:1035F00011463620FEF79EFC002226213620FEF7DB
:10360000B8FC13208DF800006B4601220C212A2003
:10361000FEF790FC002038BD38B50446FFF755FE94
:103620004FF4FF1200212820FEF7B0FC364A00219B
:103630002820FEF7ABFC0220FEF7E7FC0D20FEF78A
:10364000E4FC042C00D20424224600210A20FEF7C8
:103650009DFC10208DF800006B46012224212F20B4
:10366000FEF768FC38BDF8B5044680208DF80000F0
:103670006B46012211212820FEF75CFC0A208DF800
:1036800000006B46012212212820FEF753FC0F2078
:103690008DF800006B46012212212820FEF74AFC1B
:1036A00000258DF800506B46012229462A20FEF79E
:1036B00041FC01208DF8000002466B4600212A20C3
:1036C000FEF738FC012C27D00020FEF79EFC6B464D
:1036D000022203212A20FEF768FC0120FEF795FC58
:1036E0009DF800609DF8014001228DF800506B4666
:1036F00000210BE068090020889E0008A89E0008B1
:10370000C69E0008909E000800FF5F002A20FEF77A
:1037100011FC46EA0420F8BD012002F07CFC6B4657
:10372000022203212A20FEF740FCD9E708B56B46A8
:10373000012204212A20FEF738FC9DF8000008BD74
:1037400008B56B46012203212A20FEF72EFC9DF8C6
:10375000000008BD10B5172000F084FD002805D03A
:103760004FF0E0224FF40001C2F8801110BD002894
:1037700005D04FF0E0214FF40000C1F80001704780
:103780000020704710B5344C0221204603F0C7FFDB
:103790000028F9D00021204603F055FF002010BD7D
:1037A0002DE9F041984615460F4606460024FFF7DE
:1037B000D1FF0246294810230360274806E0395DFF
:1037C00081810189C907FCD08189641CB442F6DB80
:1037D000002107E018F8014084810489E407FCD047
:1037E0008489491CA942F5D31C48001F0360104678
:1037F000FFF7BDFF0020BDE8F0812DE9F0411D4637
:103800001646884607460024FFF7A4FF02461348E1
:1038100010230360104808E018F804108181018922
:10382000C907FCD081892970641CBC42F4DB0021EB
:103830000C4606E084810789FF07FCD087896F5416
:10384000491CB142F6D30548001F03601046FFF73C
:103850008EFF0020CFE70000003001401408014037
:10386000C178532904D101794E2905D0572905D0B3
:103870000178642904D006E00120704702207047D7
:103880004078652801D000207047032070472D48FC
:1038900008B50268001D0368001D006800902AA199
:1038A000314804F085FE012008BD70B52E492F4C2B
:1038B00010224031204600F04DFE2B494AF6AA2046
:1038C0004031A1F116020B88834215D00880488848
:1038D0002E23401C488050804FF42A4088809080DE
:1038E00056203122C8800A814B8130258D81C881C4
:1038F0000A824B828D8215E04888401C48805080A7
:1039000088889080C888D080088910814889508133
:1039100088899081C889D081088A1082488A50821B
:10392000888A90822046BDE870400F4910224031BD
:1039300000F01DBE002070470B49102240310B489B
:1039400000F015BEE8F7FF1F41542B534E3D2530C4
:1039500038782D253038782D253038782D312D3197
:103960002E300D0A00000000200A002000A40008EC
:1039700000F0200200F0100302EB8302102303EAA0
:1039800090001044FE4A00090229506006D1032825
:1039900002DD48F2040001E040F40040FDF721BAE6
:1039A000014600208A0700D50120490700D5801C68
:1039B0007047FEB50646202000F0A7FCFDF7FFFF8C
:1039C000F04CA717A04214D0EF4D1021284603F069
:1039D000D0FB012002F01FFB1021284603F0C7FB9B
:1039E000072002F018FBFDF7EAFFA0420FD1FFF716
:1039F00092FD00F005FDFDF793FF002807DB08208E
:103A000000F083FCFDF7DBFF0546A04201D03846FD
:103A1000FEBDDB4C300701D4012000E00220E06055
:103A2000217B3046FFF7A4FFE068022804D16068DC
:103A3000032801DD0020E060E068FDF789FA3046E8
:103A4000FFF7AEFFCE49A06000EB8000183111F8FF
:103A500010208DF8002001EB40016261CA788DF8DA
:103A600001204A788DF802204A798DF805208A795C
:103A70008DF806200A89ADF808208A788DF8032091
:103A800009798DF80410BE49403101EB40016846C8
:103A9000FDF79AFF2846FEBD0120FEF79AB910B542
:103AA000BA4C00BFFFF769FA2021204603F04BFB18
:103AB0000128F7D010BD4FF48050FDF799F902208E
:103AC00002F0A9FAFBE7552101EA500100F0550088
:103AD00041EA4000332101EA900100F0330041EA5D
:103AE0008000010900F00F0041EA00107047AA2190
:103AF000B1EB102F01D000207047C0B270472DE904
:103B0000F0410746A2A004F047FDA1A1A54804F09A
:103B10004FFD0446A34D780605D5A3A004F03CFD57
:103B20002819A1A104E0A2A004F036FD2819A0A143
:103B300004F03EFD0444B80605D5A0A004F02CFD19
:103B400028199EA104E0A0A004F026FD28199EA13A
:103B500004F02EFD0619C7F34204F806214606D5E7
:103B60009CA004F019FDA81922469AA105E09CA08A
:103B700004F012FDA819224699A104F019FD81193B
:103B8000BDE8F041874800F054BE2DE9F04F93B0F6
:103B90004FF4E13002F05AFA00F0B8FA00F0DDFB21
:103BA000002140F2833000F078FD00F095FC4FF4E6
:103BB0007A7002F030FAFFF778FEC82002F02BFA94
:103BC00000F01AFE8A4E8223764A8849304602F077
:103BD00029FB884804F0E0FC874804F0DDFC8748B6
:103BE00004F0DAFC864804F0D7FC834804F0D4FCE7
:103BF000804804F0D1FC834D83A0698804F0CCFC9C
:103C00007C49684804F0D4FC664C0746E0197A49C0
:103C100004F0CEFC0744E019784904F0C9FC0744DD
:103C2000E019774904F0C4FC0744E019724904F034
:103C3000BFFC0744E0196F4904F0BAFCC1192046E3
:103C400000F0F7FD694801228021001F04F0D3FB3A
:103C5000304602F00CFBA888FFF749FF0446A9880C
:103C60006FA004F099FCDFF8D88114B32046FFF769
:103C700046FF04F07F00FFF726FF414C014620700D
:103C800070A004F089FC4FF0E0264FF40005C6F860
:103C90008051042000F04EFA2078FFF78AFE401C85
:103CA0002AD03127F8074FF004002CD000F042FA58
:103CB0002BE004252C46E0074FF0040002D000F072
:103CC00039FA01E000F04EFAC82002F0A4F9641EAF
:103CD000F1D261A004F060FC32481E21823000F075
:103CE00096FD30488230FFF7BBFD022845D02621E3
:103CF00059A000F09EFDDDE7042000F033FA13B078
:103D00000020BDE8F08F00F02DFA322002F083F998
:103D10007F1EC7D22078C0F3C201072915D0042026
:103D200000F008FAC6F80051554D00BF95F8AB6594
:103D300000F035FAD5F8AC15471AFDF7DDFFFDF7B1
:103D40000AF9E060012E02D0A4E0FFF7B4FEB5F856
:103D5000FA00B84212DA01210F20FEF743F90121DF
:103D60001920FEF73FF901210A20FEF73BF9002652
:103D700085F8E060E068012884E03AE18AE000002C
:103D8000300000203001CADE00080140000C014074
:103D90004D696E69337320C5E4D6C3D0C5CFA2A3E5
:103DA000BA000000800A0020362E384D2C2020005A
:103DB0003131306B7062732C202000004368616EDB
:103DC0006E656C20352C20004368616E6E656C203A
:103DD000322C2000416E63686F722025640D0A004A
:103DE0005461672025640D0A00000000043801407A
:103DF00044000240B4A30008E0A2000870A3000839
:103E000028A300084A0A00204D696E69337320BF59
:103E1000AABBFAB4CECAFDA3BA25640D0A000000FD
:103E20007379735F706172612E6465766963655F33
:103E3000737769746368203D253032780D0A00007D
:103E4000600A00207331737769746368203D253000
:103E500032780D0A00000000B5C8B4FDBDD3CAD544
:103E60004154C3FCC1EEBDF8D0D0D0E9C4E2B2A643
:103E7000C2EBBFAAB9D8C9E8D6C30D0A000000003A
:103E80001002002031D0FFF745F8062085F8010028
:103E900085F8AB65FDF762F8060025D0604802F0B2
:103EA000E6F9FDF762F800F00F0AFDF762F800F09E
:103EB0000F09FDF762F80190FDF730FE1FFA80FB55
:103EC000E068012815D04846FDF71EFE0746FDF7BD
:103ED000B0FF0D90FDF7B0FF1290FDF7B0FF0A9014
:103EE000012E09D0FDF728F864E04E48FDF74CFE9E
:103EF000CEE7FDF705FEE9E70320FDF71CFE029083
:103F00000220FDF718FE03900120FDF714FE00903B
:103F10000020FDF710FEE2680346012A12D0612658
:103F200005A8019A40A180E84406039A0192CDE9D0
:103F300003B74B480A9A04F03BFB06466078012819
:103F400002D028E07426EBE70320FDF700FE109076
:103F50000220FDF7FCFD01900120FDF7F8FD009027
:103F60000020FDF7F4FDE2680346012A39D04FF046
:103F7000610C129ACDE9089A0D98CDE9062CCDE98D
:103F80000470109ACDE9022B354836A130440A9AC4
:103F900004F00EFB0644FCF7CFFF002E0ADD20697B
:103FA00010B300F0FCF8216901F57A71884201D361
:103FB000002020612A481E21823000F028FC284879
:103FC0008230FFF74DFC022813D025488230FFF7DE
:103FD00047FC03287FF4AAAE1321314800F029FCE6
:103FE000A4E64FF0740CC4E731461D4800F021FCF4
:103FF000E0E7C82002F00FF81948823002F08BF891
:10400000A8F80400FFF798FC00F000F825480168C4
:10401000254A01F4E06111430160BFF34F8FFEE7D1
:1040200044000240100200206D63202530327820C9
:104030002530386420253038642025303864202528
:1040400030386420253034782025303278202530EF
:10405000387820256325643A25640D0A00000000A5
:10406000800A00206D722025303278202530386497
:1040700020253038642025303864202530386420ED
:10408000253034782025303278202530347825309A
:10409000347820256325643A25640D0A0000000069
:1040A0001C0000200CED00E00400FA057047FEE75C
:1040B000FEE7FEE7FEE77047704770471248016869
:1040C000491C0160704710B5AFF30080BDE8104097
:1040D0004FF4005002F040BD10B5FFF7DDFCBDE825
:1040E0001040012002F038BD10B5FFF7D8FCBDE844
:1040F0001040082002F030BD10B5FFF7D0FCBDE83D
:104100001040202002F028BD9800002008B50121B1
:10411000082003F0A8F94FF47070ADF800001020EB
:104120008DF8030003208DF802006946194802F05B
:10413000B0FF08BD01461748052912D2DFE801F09B
:104140000305070A0D00402109E0802107E04FF434
:10415000807104E04FF4007101E04FF4707103F0DE
:1041600008B8704701460B48052912D2DFE801F074
:104170000305070A0D00402109E0802107E04FF404
:10418000807104E04FF4007101E04FF4707102F0AF
:10419000EEBF7047000C01404FF0FF307047DC4825
:1041A0000068704770B5DB484FF47A710068B0FB67
:1041B000F1F0B0F1807F14D220F07F404FF0E02486
:1041C000401E606165170F21284600F090F900201D
:1041D000A061072020610521284600F088F9002011
:1041E00070BDFEE71CB52020009000208DF8040073
:1041F00008218DF805108DF80600684602F04EFC87
:1042000000201CBD7FB52024ADF80C4028208DF87F
:104210000F0003A9C04802F03CFF0521012002F075
:10422000F0FF009400248DF8044008208DF805006C
:1042300001258DF80650684602F030FC4FF4C0604E
:1042400002F0E2FA17208DF808000F208DF809001F
:104250008DF80A408DF80B5002A802F0DAFA04B08B
:10426000002070BDAD49024600200968114200D00F
:104270000120704710B586B002F0EAFF4FF4803499
:10428000204602F0FEFF03F029F828B3102002F0C8
:104290007BFC022002F068FC002003F057F80020AD
:1042A00003F062F8A01103F058F8601003F071F801
:1042B0004FF4E011204603F032F8012003F037F804
:1042C000392002F0F6FF0028FAD0022003F032F87D
:1042D00003F037F80828FBD1684603F07BF801218A
:1042E000080303F0C0F80121880303F0C5F8012199
:1042F0000D2003F0B8F806B0002010BD884A1188E0
:1043000021F0380101431180704730B5844D0446D7
:1043100085B0284603F0F6F80021ADF800104FF400
:104320008270ADF80200ADF808106815ADF80A000B
:10433000ADF80410ADF80C400720ADF80610ADF84C
:104340000E10ADF810006946284603F0FFF8012171
:10435000284603F078F905B030BDF0B5704E87B04F
:10436000304603F0CFF80021ADF800104FF4827012
:10437000ADF80200ADF808107015ADF80A00102471
:10438000ADF80410ADF80C400720ADF80610ADF8FC
:104390000E10ADF810006946304603F0D7F8A020A3
:1043A000ADF8140018208DF817005E4F03258DF826
:1043B000165005A9384602F06CFE4020ADF81400F6
:1043C00048208DF8170005A9384602F062FEADF8C6
:1043D00014408DF817408DF8165005A9384602F0A4
:1043E00058FE0021304603F066F90121304603F003
:1043F0002AF91021384602F0BAFE07B00020F0BDBD
:10440000F8B50124ADF8004010208DF80300454EAA
:1044100003258DF802506946304602F03AFE01212C
:10442000304602F0A6FEADF8004000208DF80300F3
:104430008DF802506946304602F02BFE022001F052
:10444000EAFDF8BD7FB501250024364A0826ADF8FF
:10445000085030B304208DF80B0002A9104602F07A
:1044600018FE0021084602F0CCFE8DF804408DF8BD
:10447000056000958DF80650684602F00FFB4FF47A
:10448000407002F0C1F906208DF80C000F208DF865
:104490000D008DF80E408DF80F5003A802F0B9F909
:1044A0007FBD8DF80B4003208DF80A0002A910464D
:1044B00002F0EFFD8DF804408DF8056000958DF851
:1044C0000640684602F0EAFA7FBD4FF0E020D0F8DF
:1044D0000001C0F3C050704710B502F03BF9FFF780
:1044E000C9FEFFF75FFEFFF78DFE002010BD090734
:1044F000090E002806DA00F00F0000F1E02080F835
:10450000141D704700F1E02080F80014704700008F
:1045100098000020E8010020000C01400004014048
:104520000030014000080140008870472DE9F0414B
:1045300016460F460546002408E000BF37F8141061
:10454000284602F028FC641CA4B2AD1CB442F5D38A
:10455000BDE8F08110B5002306E000BF30F8024B43
:1045600021F813405B1C9BB29342F7D310BD2DE999
:10457000F05FA0F1006415468A468346B4F5803F9B
:1045800053D202F00AFBA70AC4F34806C6F500742A
:10459000A54200D82C46DFF8A49000BF4FF0006081
:1045A00000EB872080464FF400722449FFF7D2FFCA
:1045B00000204FF6FF7106E0331839F813208A42C5
:1045C00003D1401C80B2A042F6D3A04225D240467F
:1045D00002F01EFB0020494607E000BF3AF8102019
:1045E0008319401C21F8132080B2A042F6D313494E
:1045F00040464FF4007200BFFFF798FFA54210D06D
:10460000281B0AEB440AA344002685B24FF4007429
:104610007F1CA542C2D82C46C0E7224651465846C8
:10462000EAE7BDE8F05F02F0C4BABDE8F09F13B559
:10463000012201A9FFF79BFF1CBD0000200B0020F9
:104640007FB50C4605460121022002F015FFADF8AA
:104650000450ADF800400024304DADF80640ADF8F0
:1046600002406946284603F01FF9012211462846F8
:1046700003F0D8FB1D208DF80C008DF80D400320B1
:104680008DF80E0001208DF80F0003A802F0C1F88C
:104690000121284603F0B1FB7FBD30B50C4605462D
:1046A00089B00121022002F0E7FE0121092002F079
:1046B000DAFE0220ADF81C0018208DF81F00032040
:1046C0008DF81E0007A9164802F0E3FCADF804506F
:1046D000ADF800400024114DADF80640ADF80240A1
:1046E0006946284603F0E0F87020ADF80C00012080
:1046F000ADF80E00ADF8144003A9284603F0B8F950
:104700000821284603F078FC1421284603F07DFD9B
:104710000121284603F071FB09B030BD00040040C0
:10472000000C014038B55E494FF4A0642246A1F167
:10473000200001F0B3FD5B492246A1F5A26001F023
:10474000ADFD0121042002F08EFE4FF48060ADF833
:10475000000003208DF8020010208DF80300694648
:10476000514802F096FC4FF48024204602F0F4F900
:104770004E4908200C60487101208871084602F0FB
:104780008DF938BD10B5002002F0FFFD0121BDE814
:104790001040C80502F070BE45490320086070470C
:1047A0004448817A424809B1052100E001210160B5
:1047B000704738B514208DF8000002208DF80100F4
:1047C00000248DF8024001208DF80300684602F0B5
:1047D00020F82A208DF800008DF80140684602F08C
:1047E00018F838BD304A00284FF48061104601D0D7
:1047F00002F0BDBC02F0BDBC10B5FFF793FFFFF7A0
:10480000C1FFFFF7D6FFBDE8104000F017BF0A4612
:1048100001462348203801F05FBD0A460146204882
:10482000203801F041BD0A4601461D48103801F00C
:1048300053BD0A4601461A48103801F035BDF0B59F
:1048400000230A24302537261F4610E0B4EB107FE2
:1048500002D905EB107C01E006EB107C01F813C0D7
:1048600001EB430C00015B1C8CF80170DBB293423E
:10487000ECD3F0BD104810B50168001D0468001DA0
:10488000006808180AD008220C49FFF7D8FF0B4926
:1048900020460422BDE810401031D0E710BD0000D2
:1048A000400F002040140020002001409C00002008
:1048B000AC010020E0190020E8F7FF1FA60000204F
:1048C00070B5294D2878012815D140212748FFF7D8
:1048D000AAFF0404240C4FF000060DD02246C0218C
:1048E000224800F0A1FF2146012001F086F90120B5
:1048F00001F05CF86E6070BD2E7070BD1B4910B584
:104900004031032001F02BFB81B218484030FFF703
:1049100084FFBDE81040032001F058B870B514487A
:10492000006805281FD1104C207800281BD1606832
:10493000411C6160052816D10020606040210B48B1
:10494000FFF771FF05042D0C0DD02A46C021074842
:1049500000F06AFF2946012001F04FF9012001F023
:1049600025F80120207070BDCC00002040190020E7
:10497000AC0100202DE9F0414C4E88B00024306895
:104980004B4D688068884B4F39880840800507D5B3
:104990004FF6FF5030602878401C2870FFF7BEFFAC
:1049A000688839880840000401D500F05BFE6888FB
:1049B00039884FF6FF380840400504D5C6F8008016
:1049C0003D4840688047698838880140890402D59D
:1049D0004DF6FF71316069880140C80405D54EF677
:1049E000FF703060002000F0F0F9688839880840D6
:1049F00000050BD53148007810B100F082F902E0D3
:104A0000022000F0E2F94FF2FF70306068883988C8
:104A10000840C00546D54FF6FF6030602348001DB2
:104A200000684FF00002000438D56868401C6860D8
:104A30006868032833D91D48001F016809072ED470
:104A4000016889B2A9601E494FEA0D0301EB840792
:104A5000D7F8007CBFB243F82470641C082CF5D34F
:104A6000AC6844F00104AC60AC68A4B20460AC680B
:104A700024F00104AC60AC68A4B204603068400566
:104A8000FCD5C6F80080002053F8204001EB8006DA
:104A9000A4B2C6F8004C401C0828F5D36A60072071
:104AA00000F093F908B0BDE8F0810000445C0040DC
:104AB000D4000020D001002034010020B0010020EB
:104AC00000500040FFF756BF4FF4802002F044B87A
:104AD00010B5FFF7CFFE764800240068847200F01E
:104AE000F1F801F01DFA7348046010BD704810B56C
:104AF0000068714A00218172D2794272C1720846FF
:104B000000F0D4FE4FF40071002000F0E7FE102109
:104B1000002000F0F8FE4021002001F04AF880213A
:104B2000002001F03AF8002000F07CFF634890F884
:104B30002C10002001F07FF8002000F047FF00213A
:104B4000012000F0CBFEC021012001F026F8202139
:104B5000012000F0D8FE0021012000F0EAFE4FF411
:104B6000C061022000F0BAFE4FF48071022001F013
:104B700014F80021022000F0DCFE2021022000F0C9
:104B8000C2FE0021032000F0A9FE4FF4887103202B
:104B900001F00FF84021032001F04DF84FF440518F
:104BA000032000F0C6FE0021032000F0ACFE002030
:104BB00000F084FC3F490120086010BD4048807A25
:104BC000002802D03B49052008607047394904207D
:104BD0000860704739481C380178202901D100212C
:104BE00001707047704710B1344818387047304929
:104BF0000820096808820020704710B12F48183833
:104C000070472B4908200968088200207047284A0D
:104C100010B500211268212802D0202808D019E000
:104C2000107800F07F00212814D1AFF231010AE0A2
:104C3000107800F07F00212801D1AFF255011F4B01
:104C400020201C3B187029B10020916150828847B8
:104C5000002010BD022010BD15490968097801F037
:104C60007F01212903D1022803D0222801D002206C
:104C70007047002070471149103900F049BA0F49B8
:104C8000083900F045BA0A490968C978042901D9E8
:104C900000207047094A303202EBC10100F038BAF7
:104CA00009B9012801D9022070470020704700008F
:104CB000C4010020AC01002056A1000834010020EE
:104CC000E019002010B50120FFF78CFD624801219A
:104CD00001600021614A0160031D19604FF4E05139
:104CE00011800160002010BD10B55B4C01202060D8
:104CF000211D00200860FFF775FD032020600020C3
:104D000010BDF8B55449002000900A68544B554C2A
:104D100092B200BF03EB8005D5F8005CADB244F859
:104D20002050401C0828F5D342F48060086040F011
:104D30000100086020F001050D60474A121D10684F
:104D40004005FCD54FF6FF301060002054F820607D
:104D500003EB8007B6B2C7F8006C401C0828F5D3F7
:104D600045F008000860086880B240F00400086060
:104D70003D4B18680090186820F0030040F00100D7
:104D800018603A48046844F0040404601468E404B9
:104D900009D54EF6FF7414600A6892B222F0080238
:104DA0000A6000991960016821F004010160F8BDF2
:104DB00010B5294C206880B220F004002060FFF775
:104DC000EFFC4FF43F40206010BD2DE9F041284C2E
:104DD000072800D020702278254D062705210426BB
:104DE0001D48062A0BD2DFE802F0030C11161E271D
:104DF000686810B12170BDE8F081FFF7D9FF277016
:104E0000F9E7FFF7D5FF2670012022E0022060704D
:104E100003202070EFE76078401E60706078002803
:104E2000E9D12670E7E7026892B242F01002026010
:104E300021700A206070DEE76178491E6170617838
:104E40000029D8D1016889B221F0100101602770D2
:104E500000206860CFE70000405C0040D0010020E7
:104E600000500040C01900200070004010ED00E02C
:104E7000B401002010B5FB4C30B1FB48006800685D
:104E8000804720680A3010BD216801200882002078
:104E900010BDF44810B50068F44AC17852789142C8
:104EA00003D882780AB982880AB1022010BD8172C3
:104EB000ED48006840688047002010BD10B5E94CFF
:104EC00030B1E94800688068804720680C3010BD28
:104ED000216801200882002010BD10B5E14CE44A91
:104EE00020681268C17892694079904721688A7A6F
:104EF00022B118B9087908B9887808B1022010BD24
:104F0000D9480068C068804720684179C172C1787B
:104F10000173002010BDD34910B5096860B1D548B0
:104F2000002202800A7853060AD002F07F02012A8A
:104F300016D0022A16D001E002200882002010BDFF
:104F4000497A8A06027802D542F0020201E002F0B4
:104F5000FD0249060270D1B211D401F0FE0110E049
:104F6000C44810BD4A7911071306C34A02EB916188
:104F7000D1F8001C07D5C1F3011106E0017841F01A
:104F80000101017003E0C1F301310129F6D0B648F7
:104F9000006800698047E3E72DE9F041B148006807
:104FA000017811F07F0102D0022905D066E0417A34
:104FB00001F0DF0141724EE0418800295ED10179A4
:104FC000F1BB4179AC4D21F080040A0605EB840267
:104FD000A64BD2F8002C03D5C2F30112120102E055
:104FE000C2F3013212031E782346A64246D93AB3D1
:104FF000807A28B308064FEA84000ED52844D0F8FA
:10500000000CC0F30110012821D1184600F09CFDCE
:105010002046302100F077FC19E04619D6F8000C44
:10502000C0F30130012812D14BF68F7748F2800887
:10503000A4B1184600F076FDD6F8000C384000E028
:105040001CE080F4405040EA0800C6F8000C864896
:105050000068406980470020BDE8F081874890F8EB
:105060002C10002000F0E7FDD5F8000C384080F44B
:10507000405040EA0800C5F8000CE8E70220EBE7E2
:1050800070B578487C4D0368597921F0800005EBB4
:1050900080000C06D0F8004C21F0800203D5C4F348
:1050A0000114240102E0C4F3013424036F4D2D7870
:1050B000954210D95A8872B96CB19A7A5AB10906D8
:1050C000D0F8001C48F2800207D548F6BF7319409B
:1050D00081F0100106E0022070BD4BF68F7319407D
:1050E00081F480511143C0F8001C5F48006880695A
:1050F0008047002070BD5B4810B50068417A41F0E0
:105100002001417258480068C0698047002010BDE6
:10511000544A13685A8A10B1086810447047888846
:10512000801A1882002070472DE9F047DFF834819B
:10513000534F4FF03009D8F8001001F11005088ADC
:105140000E7A08B9042E04D0AC88A04216D80426E2
:1051500015E04848801E0178012903D00726102059
:1051600038802BE0474A00211268474B120403EBBA
:10517000D2325160A7F8009001701FE002268442ED
:1051800000D90446A968204688478246002000F0DE
:105190001DFD01462246504600F046FB21460020F8
:1051A00000F02BFD2888001B288068882044688038
:1051B000A7F8009035494FF440500880D8F8000017
:1051C0000672BDE8F08770B5264D286801784478EE
:1051D0004A0606D001F07F00012828D002282BD0F3
:1051E00035E0092C06D0052C07D0032C0ED0012C5D
:1051F00014D02CE0FFF74DFE28E0C1787F292ED88F
:10520000817861BB818851BB807A27E0C178012910
:105210001DD18088D8B9FFF76EFF17E0C17801294A
:1052200015D1818899B9407A80060AD40FE00B2CF9
:105230000DD1FFF752FE09E0012C02D0032C03D060
:1052400005E0FFF7A9FE01E0FFF71AFF48B10849A2
:105250002046096849698847032819D008B1082001
:1052600024E017E0C4010020CC01002084010020CC
:10527000C8010020BE010020005000403401002081
:10528000D4010020505C004000600040D2010020AA
:1052900009200BE0DE4A062000211268DD4B1204D3
:1052A00003EBD2325160DC4A302111802968087248
:1052B00070BDF8B5D94CDA4D092620680027296859
:1052C0004278062A05D0AAB1082A4ED00A2A52D01E
:1052D0006EE0027852066BD18078012804D0022853
:1052E00004D0032804D063E0C96959E0096A57E093
:1052F000496A55E04288BABBC288022A58D102796D
:1053000092BB0278530601D1838833B102F07F0249
:10531000012A05D0022A0DD04AE0AFF205413FE054
:105320008A69407900219047F0B92068807A002886
:10533000F3D13DE0417901F00F0001F070020B065E
:10534000B84901EB8001D1F8001C03D5C1F301116C
:10535000090102E0C1F301310903B34B1B78834219
:1053600026D90AB90029D8D122E0007840061FD1F9
:10537000AFF2FF4114E0027802F07F02012A17D158
:10538000827AAAB142889AB902798AB9C288012A76
:105390000ED18A6940790021904748B9AFF2E341C4
:1053A00031B120684782816100208847002006E0F3
:1053B00029682068096940788847032813D0216844
:1053C0000A8AA2F57F43FF3B0BD002280ED06AB1B8
:1053D0000878000625D5C888009082420AD908823C
:1053E00018E00E72F8BD20680672F8BD4FF0080094
:1053F0000872F8BD0ED228688C4B90F82C008242BF
:1054000001D21F7006E0B2FBF0F400FB142008B9D3
:1054100001201870286890F82C008882BDE8F840B8
:1054200082E603200872824900030880F8BD8148A3
:1054300010B590F82C10002000F0FDFB77480068B4
:10544000007A082802D0092809D006E078494FF4EC
:1054500080500880704910200880002010BD012075
:1054600010BD70B56A4800686C4D0004C10B6948F6
:105470000144098989B200EB41042868017A0929AD
:105480000FD02178017061784170A08800F03CFD58
:1054900029684880208900F037FD29688880A08924
:1054A000C880286801210172C08820B1FFF701FF80
:1054B000BDE87040BBE7FFF786FEF9E7F0B55A4953
:1054C000584D48F68F770B78002148F2800C0BE09E
:1054D000CEB205EB8604D4F8002C3A40324342EABF
:1054E0000C02C4F8002C491C9942F1D3484940F001
:1054F0008000091F0860F0BD10B5484C2068017A93
:10550000022904D0042902D0062905D015E0FFF7AE
:105510000BFE2068007A11E04178052909D1017855
:10552000490606D1C078FFF7C9FF43480068006A02
:1055300080473B48006880688047082021680872DF
:10554000BDE8104073E710B5344C2068007A02289B
:1055500011D004280FD0032804D0052802D0072832
:1055600005D008E000F00EF82068007A04E02C482E
:105570000068C0688047082021680872BDE81040B4
:1055800055E770472DE9F047244EDFF88C8030272F
:10559000356835F8100FA968A9B100B3AC8884420A
:1055A00000D904462046884781462888001B288069
:1055B000688820446880002000F013FB01462246E2
:1055C000484600F044F9288848B119494FF4405042
:1055D00008800021084600F010FBA8F80070288819
:1055E000A988884201D3032001E018B10520316861
:1055F0000872E6E53168062008720549002009684E
:10560000044A090402EBD1314860A8F80070D8E5DB
:10561000505C004000600040D4010020C401002024
:10562000C80100200050004084010020BC0100207F
:10563000D201002034010020CC0100200648054999
:10564000022201600A72064A0449C0E90112086890
:1056500000470000E0190020C401002034010020B0
:10566000880100202DE9F84F0020ADF80000DFF898
:105670009CA14BF6BF7648F28007644D644C40F61F
:105680008F7848F60F7BDFF88C910AF1440A31E0FD
:105690000888614A10F00F00107034D05F4901EBA8
:1056A0008001D1F8002CADF80020BDF800201204D4
:1056B0000BD5D1F8002C02EA0802C1F8002C584999
:1056C00001EB800050F8040C8047BDF80000000694
:1056D00010D551485149007801EB8001D1F8002CD8
:1056E00002EA0B02C1F8002C4E4901EB800050F891
:1056F000040C8047DAF800004946A9F800000004CD
:10570000C6D4BDE8F88F28682080208800F03000DB
:105710006080208800F4405020802868304080F469
:10572000005080F02000384328600888C0062868B0
:1057300015D400EA0B002860FFF7DEFE26E0218882
:10574000890401D580F400506188C90626D4618897
:10575000890601D580F0200038432860D1E7ADF8F4
:105760000000BDF80000000506D5286800EA080022
:105770002860FFF776FE09E0BDF800000004B9D507
:10578000286800EA08002860FFF7DDFE2868218805
:105790003040C904D3D580F48050D0E780F01000A9
:1057A000D5E72DE9F041194C1B4E1C4F4434194DDF
:1057B00026E000BF47F6FF702060288800F00F0148
:1057C00007EB81003170D0F8002C92B2130408D599
:1057D000D0F8002C40F68F731A40C0F8002C104807
:1057E00009E012060CD5D0F8002C48F60F731A40C9
:1057F000C0F8002C0B4800EB810050F8040C8047E7
:10580000206828800004D5D4BDE8F081005C004009
:10581000D2010020D6000020C0010020005000402E
:10582000FC000020E0000020104B10B5521C520874
:1058300003EB41010AD000BF10F8013B521E10F8E3
:10584000014B43EA042321F8043BF5D110BD074B7B
:10585000521C520803EB410106D000BF31F8043B53
:1058600020F8023B521EF9D1704700000060004052
:10587000FC4908607047FB48006880B27047F949EE
:10588000091D08607047F748001D006880B2704726
:10589000F4480830006880B27047F2490C31086063
:1058A0007047F0480C30006880B27047ED4920F036
:1058B0000700103108607047EA481030006880B275
:1058C0007047E94A02EB8000C0F8001C7047E649C7
:1058D00001EB8000D0F8000C80B270478200E248F3
:1058E0000244D2F8000C48F68F1318400843C2F85F
:1058F000000C7047DC4901EB8000D0F8000CC0F3CD
:105900004120400270478200D7480244D2F8000C80
:1059100048F6BF731840CB0601D580F01000890609
:1059200001D580F0200048F280010843C2F8000C45
:1059300070478200CC480244D2F8000C4BF68F73BB
:105940001840CB0401D580F48050890401D580F43F
:10595000005048F280010843C2F8000C704700B5BF
:105960000A460346FFF7B3FF9900BF4B012A1944CB
:1059700007D0022A04D120F0100000BFC1F8000CAB
:1059800000BD20F48050F9E7B74901EB8000D0F862
:10599000000CC0F3011000017047B34901EB800017
:1059A000D0F8000CC0F30130000370478100AE480E
:1059B0000144D1F8000C48F6BF72104080F030006E
:1059C00048F280021043C1F8000C70478100A648DD
:1059D0000144D1F8000C4BF68F72104080F4405017
:1059E00048F280021043C1F8000C704781009E48C5
:1059F0000144D1F8000C48F68F72104048F2801232
:105A00001043C1F8000C7047810097480144D1F859
:105A1000000C48F68F62104048F280021043C1F833
:105A2000000C7047810090480144D1F8000C48F602
:105A30008F62104048F280021043C1F8000C70479A
:105A4000810089480144D1F8000C48F68F7210405B
:105A500048F280121043C1F8000C70478100824860
:105A60000144D1F8000C48F68F72104048F28012C1
:105A70001043C1F8000C704781007B480144D1F805
:105A8000000C48F68F62104048F280021043C1F8C3
:105A9000000C7047744901EB8000D0F8000CC0F393
:105AA0000110012800D0002070476F4901EB8000F1
:105AB000D0F8000CC0F30130012800D0002070475E
:105AC000810069480844D0F8001C40F68F721140EC
:105AD000C0F8001C7047810063480844D0F8001CDF
